:100E1C0090E682E030E004E020E60B90E682E030E1
:100E2C00E119E030E71590E680E04401F07F147E94
:0C0E3C0000120D3190E680E054FEF02220
:1000030030040990E680E0440AF0800790E680E03F
:100013004408F07FDC7E05120D3190E65D74FFF03D
:0F00230090E65FF05391EF90E680E054F7F02203
:100D31008E198F1A90E600E054187012E51A2401FA
:100D4100FFE43519C313F519EF13F51A801590E671
:100D510000E05418FFBF100BE51A25E0F51AE5195C
:100D610033F519E51A151AAE19700215194E6005F9
:060D7100120E7380EE2259
:080FBD00E4F53CD2E9D2AF22B9
:1008C500AD0790E678E020E6F9C2E990E678E044E5
:1008D50080F0ED25E090E679F090E678E030E0F9FB
:1008E50090E678E04440F090E678E020E6F990E67E
:0808F50078E030E1D6D2E922DF
:100DEA00AC0790E678E020E6F9E53C702390E678D7
:100DFA00E04480F0EC25E090E679F08D37AF03A966
:100E0A00077538018A39893AE4F53B753C01D322E2
:020E1A00C322F1
:100DB600AC0790E678E020E6F9E53C702590E67809
:100DC600E04480F0EC25E0440190E679F08D37AF01
:100DD60003A9077538018A39893AE4F53B753C035E
:040DE600D322C3222F
:03004B000205D9D2
:1005D900C0E0C083C082C085C084C086758600C063
:1005E900D075D000C000C001C002C003C006C0075A
:1005F90090E678E030E206753C060206C390E6789C
:10060900E020E10CE53C64026006753C070206C384
:10061900E53C24FE605F14603624FE70030206B4D4
:1006290024FC70030206C0240860030206C3AB3829
:10063900AA39A93AAF3B053B8F82758300120A8319
:1006490090E679F0E53B65377070753C05806B90F5
:10065900E679E0AB38AA39A93AAE3B8E82758300B8
:10066900120AB0753C02E5376401704E90E678E0F5
:100679004420F08045E53724FEB53B0790E678E055
:100689004420F0E53714B53B0A90E678E04440F0A1
:10069900753C0090E679E0AB38AA39A93AAE3B8EB1
:1006A90082758300120AB0053B800F90E678E0441A
:1006B90040F0753C008003753C005391DFD007D0B2
:1006C90006D003D002D001D000D0D0D086D084D0BB
:0806D90085D082D083D0E0320D
:020E4800A907F8
:100E4A00AE2DAF2E8F828E83A3E064037017AD019F
:100E5A0019ED7001228F828E83E07C002FFDEC3E1B
:080E6A00FEAF0580DFE4FEFF8E
:010E7200225D
:1000E200120DB6E53C24FA600E146006240770F384
:0C00F200D322E4F53CD322E4F53CD322F9
:100EB800120DEAE53C24FA600E146006240770F36C
:0C0EC800D322E4F53CD322E4F53CD32215
:100E73007400F58690FDA57C05A3E582458370F992
:010E8300224C
:100E840090E682E044C0F090E681F04387010000E0
:040E94000000002238
:1009B800496E697469616C697A617465640A0A00D0
:1009C800446576696365447363723A3078005265AA
:1009D800636F6E656374696E672E2E2E0A0A004770
:1009E8006574205365747570204461746120417684
:1009F80061696C61626C650A0053657475702043A7
:100A08006F6D616E640A004465766963650A0A0061
:100A1800446576696365205175616C6966696572BC
:100A28000A0A00436F6E66696775726174696F6E52
:100A38000A0A004F74686572205370656564204324
:100A48006F6E66696775726174696F6E0A0A005322
:100A58007472696E670A0A00000102020303040443
:020A6800050582
:1003FA00E4F514F513F512F511C203C200C202C2E4
:10040A00011207E87BFF7A0979B8120D7775230183
:10041A00752400752B01752C147521017522207520
:10042A002901752A42752D01752E647BFF7A097997
:10043A00C8120D77AF24AE23120F8E7F0A120F3621
:10044A00740154E070030205617515007516807E0B
:10045A00017F008E178F18C374989FFF74019ECF77
:10046A002402CF3400FEE48F108E0FF50EF50DF541
:10047A000CF50BF50AF509AF10AE0FAD0EAC0DABCE
:10048A000CAA0BA90AA809C3120AD25026E51625F6
:10049A000CF582E515350BF58374CDF0E50C2401D6
:1004AA00F50CE4350BF50BE4350AF50AE43509F5E4
:1004BA000980C4E4F50CF50BF50AF509AF10AE0F87
:1004CA00AD0EAC0DAB0CAA0BA90AA809C3120AD22D
:1004DA005033E518250CF582E517350BF583E0FF57
:1004EA00E516250CF582E515350BF583EFF0E50CDD
:1004FA002401F50CE4350BF50BE4350AF50AE4356D
:10050A0009F50980B785152385162474002480FF10
:10051A00740134FFFEC3E52C9FF52CE52B9EF52BC9
:10052A00C3E5269FF526E5259EF525C3E5289FF513
:10053A0028E5279EF527C3E5229FF522E5219EF5AA
:10054A0021C3E52A9FF52AE5299EF529C3E52E9FB1
:10055A00F52EE52D9EF52DD2E843D82090E668E0E9
:10056A004409F090E65CE0443DF0D2AF90E680E0CA
:10057A0020E105D20412000390E680E054F7F07BF4
:10058A00FF7A0979D6120D77538EF8C20330010E1D
:10059A007BFF7A0979E7120D77120199C2013003BC
:1005AA00291200415024C203120E8420001690E63C
:1005BA0082E030E704E020E1EF90E682E030E604F2
:0F05CA00E020E0E4120E1C1200FE12003280BE90
:100199007BFF7A0A7901120D7790E6B9E0700302C4
:1001A900028614700302030324FE700302038624EB
:1001B900FB700302028014700302027A14700302B6
:1001C900026E147003020274240560030203E6122E
:1001D900003640030203F290E6BBE024FE603414CB
:1001E900605724FD601A14603D240670757BFF7A00
:1001F9000A790F120D77E52390E6B3F0E524805BC9
:100209007BFF7A0A7918120D77E52B90E6B3F0E5B2
:100219002C80487BFF7A0A792B120D77E52590E629
:10022900B3F0E52680357BFF7A0A793B120D77E535
:100239002790E6B3F0E52880227BFF7A0A795712E6
:100249000D7790E6BAE0FF120E48AA06A9077B01CE
:10025900EA494B600DEE90E6B3F0EF90E6B4F00298
:1002690003F20203EB120EEF0203F2120F6C020308
:10027900F2120F5B0203F2120ED40203F2120F9C68
:1002890040030203F290E6B8E0247F601514601978
:1002990024027063A200E43325E0FFA202E4334F95
:1002A9008041E490E740F0803F90E6BCE0547EFF57
:1002B9007E00E0D394807C0040047D0180027D00B3
:1002C900EC4EFEED4F2460F582740A3EF583E4930B
:1002D900FF3395E0FEEF24A1FFEE34E68F82F5832C
:1002E900E0540190E740F0E4A3F090E68AF090E64C
:1002F9008B7402F00203F20203EB120FA740030210
:1003090003F290E6B8E024FE6016240260030203BB
:10031900F290E6BAE0B40105C2000203F20203EB6F
:1003290090E6BAE0705590E6BCE0547EFF7E00E0AE
:10033900D394807C0040047D0180027D00EC4EFE58
:10034900ED4F2460F582740A3EF583E493FF3395FB
:10035900E0FEEF24A1FFEE34E68F82F583E054FE40
:10036900F090E6BCE05480131313541FFFE0540FC0
:100379002F90E683F0E04420F0806E8065120FB282
:10038900506790E6B8E024FE601A2402705B90E69C
:10039900BAE0B40104D200805090E6BAE0B4020297
:1003A9008047803E90E6BCE0547EFF7E00E0D39417
:1003B900807C0040047D0180027D00EC4EFEED4F03
:1003C9002460F582740A3EF583E493FF3395E0FED9
:1003D900EF24A1FFEE34E68F82F58380081208FD31
:1003E900500790E6A0E04401F090E6A0E04480F0D8
:0103F90022E1
:0300330002004E7A
:04004E0053D8EF3262
:1006E10053657269616C20506F727420496E697430
:1006F10069616C697A656400427269646765204367
:100701006F6E666967757265640A0047657474691E
:100711006E672044657363726970746F723A20006A
:1007210053657474696E6720436F6E6669670A0A60
:100731000047657474696E6720436F6E6669670A66
:100741000A0053657474696E6720496E7465726638
:100751006163650A0A0047657474696E6720496EB2
:10076100746572666163650A0A0047657474696E2F
:1007710067205374617475730A0A00436C65726172
:10078100696E672046656174757265730A0A005364
:10079100657474696E672046656174757265730A64
:1007A1000A005355444176204953520A0053555487
:1007B1006F6B204953520A005552737420495352AA
:1007C1000A000A4550383A204573746F79207661E2
:1007D10063ED6F0A004550383A204573746F7920F4
:0707E1006C6C656E6F0A00ED
:100F4900012F000232000001350001360002300095
:010F59000097
:1007E800908000E0909000E090A000E090B000E0E1
:1007F800FF120E987BFF7A0679E1120D777F0A12B5
:100808000F367F0A120F3690E60174CBF000000015
:1008180090E60274BCF000000090E603748FF0903C
:10082800E61074A0F000000090E611F000000090BF
:10083800E613E0547FF000000090E614E0547FF0E7
:1008480000000090E61574A0F000000090E6127415
:10085800D2F000000090E6047480F00000007402FA
:10086800F00000007404F00000007406F0000000BE
:100878007408F0000000E4F000000090E61BF000AF
:10088800000090E618F000000090E61B7411F000DC
:10089800000090E618740DF000000090E65CE0445B
:1008A80002F0D2EA90E668E04403F05391BF90E684
:0D08B800567403F07BFF7A0679F9020D7784
:0100320022AB
:02004100D322C8
:0200FE00D3220B
:0B0036007BFF7A07790C120D77D322B4
:100F5B007BFF7A077921120D7790E6BAE0F534D34F
:010F6B002263
:100ED4007BFF7A077932120D7790E740E534F0E42E
:0B0EE40090E68AF090E68B04F0D32229
:100F6C007BFF7A077943120D7790E6BAE0F52FD321
:010F7C002252
:100EEF007BFF7A077957120D7790E740E52FF0E4F3
:0B0EFF0090E68AF090E68B04F0D3220E
:0B0F9C007BFF7A07796B120D77D322E0
:0B0FA7007BFF7A07797C120D77D322C4
:0B0FB2007BFF7A077990120D77D322A5
:0208FD00D32204
:100C0700C0E0C0F0C083C082C0D075D000C000C0B3
:100C170001C002C003C004C005C006C0077BFF7A3D
:100C27000779A3120D77D2015391EF90E65D740116
:100C3700F0D007D006D005D004D003D002D001D021
:0C0C470000D0D0D082D083D0F0D0E032BA
:100C5300C0E0C0F0C083C082C0D075D000C000C067
:100C630001C002C003C004C005C006C0077BFF7AF1
:100C73000779AE120D775391EF90E65D7404F0D0CF
:100C830007D006D005D004D003D002D001D000D0C5
:0A0C9300D0D082D083D0F0D0E03240
:0F0BB300C0E0C083C082C0D075D000C004C007AE
:100BC2005391EF90E65D7402F00533E53370020550
:100BD20032E5325530FCE53355314C600790B000B8
:100BE200E0FF800590B800E0FFD5350590A000E059
:080BF200FFD53604909000E0ED
:0D0BFA00D007D004D0D0D082D083D0E0321C
:100AE300C0E0C0F0C083C082C0D075D000C000C0D9
:0D0AF30001C002C003C004C005C006C0075A
:100B00007BFF7A0779B9120D77852925852A2685F5
:100B10002682852583A37402F085212785222885D6
:100B20002882852783A37407F05391EF90E65D74C4
:0E0B300010F0908000E0F5087530047531007B
:100B3E00D007D006D005D004D003D002D001D0000B
:0B0B4E00D0D0D082D083D0F0D0E032B5
:100F0A00C0E0C083C082D2035391EF90E65D7408BB
:080F1A00F0D082D083D0E03258
:100B5900C0E0C083C08275301075310090E680E036
:100B690030E72B852125852226852682852583A3A5
:100B79007402F0852927852A28852882852783A359
:100B89007407F090E6407481F0000000800C85291C
:100B990025852A268521278522285391EF90E65D10
:0A0BA9007420F0D082D083D0E03237
:01005200327B
:0108FF0032C6
:010FC50032F9
:010FC60032F8
:010FC70032F7
:010FC80032F6
:010FC90032F5
:010FCA0032F4
:010FCB0032F3
:010FCC0032F2
:010FCD0032F1
:010FCE0032F0
:010FCF0032EF
:010FD00032EE
:010FD10032ED
:010FD20032EC
:010FD30032EB
:010FD40032EA
:010FD50032E9
:010FD60032E8
:010FD70032E7
:010FD80032E6
:010FD90032E5
:010FDA0032E4
:010FDB0032E3
:010FDC0032E2
:010FDD0032E1
:010FDE0032E0
:010FDF0032DF
:100C9D00C0E0C0F0C083C082C0D075D000C000C01D
:100CAD0001C002C003C004C005C006C0075391BFF8
:100CBD0090E6577402F07BFF7A0779C3120D77D057
:100CCD0007D006D005D004D003D002D001D000D07B
:0A0CDD00D0D082D083D0F0D0E032F6
:010FE00032DE
:010FE10032DD
:010FE20032DC
:100CE700C0E0C0F0C083C082C0D075D000C000C0D3
:100CF70001C002C003C004C005C006C0075391BFAE
:100D070090E6577401F07BFF7A0779D6120D77D0FA
:100D170007D006D005D004D003D002D001D000D030
:0A0D2700D0D082D083D0F0D0E032AB
:010FE30032DB
:010FE40032DA
:100100001201000200000040B404031000000102CC
:020110000001EC
:0A0114000A0600020000004001008E
:100120000902200001010380320904000002FF00DF
:100130000000070582010002010705080200020015
:100142000902200001010380320904000002FF00BD
:10015200000007058201FF020107050802400001B5
:10016400040309041E0345006400770069006E005F
:1001740020004200610072007200610067006100AB
:100184006E0012034C0061002D00540065007300E2
:0501940069007300008A
:03004300020900AF
:030053000209009F
:10090000020C0700020BB300020C5300020F0A0096
:10091000020AE300020B5900020052000208FF0025
:10092000020FC500020FC600020FC700020FC80069
:10093000020FC900020FCA00020FCB00020FCC0049
:10094000020FCD000208FF00020FCE00020FCF0001
:10095000020FD000020FD100020FD200020FD3000D
:10096000020FD4000208FF000208FF000208FF0087
:10097000020FD500020FD600020FD700020FD800D9
:10098000020FD900020FDA00020FDB00020FDC00B9
:10099000020FDD00020FDE00020FDF00020C9D00DF
:1009A000020FE000020FE100020FE200020CE7007C
:0809B000020FE300020FE40056
:050046000D0A2D3E0033
:100E980075C83475CBFF75CAD975985AD29990E63A
:100EA80000E054E74410F07BFF7A007946020D77A2
:100F3600151BA81BA6073099FDC299A81BE6F599B3
:030F4600051B2266
:100F2200AE07EEC3940AEE5004243080022437FF49
:040F3200120F362242
:100F7D00AD07EDC4540FFF120F22ED540FFF020FFA
:010F8D002241
:0E0F8E00AB07AA06AF02120F7DAF03020F7D64
:100D7700151B151B151BA81BA60308A60208A60111
:100D8700A81B860308E6FA08E6F9120A6A6019A89A
:100D97001B8603080806E618860270010614F91276
:0F0DA7000A6AFF120F3680D8051B051B051B2299
:03000000020056A5
:0C005600787FE4F6D8FD75813C02009D27
:100A6A00BB010689828A83E0225002E722BBFE028A
:090A7A00E32289828A83E49322BD
:100A8300BB010CE58229F582E5833AF583E0225028
:100A930006E92582F8E622BBFE06E92582F8E22272
:0D0AA300E58229F582E5833AF583E493228C
:100AB000F8BB010DE58229F582E5833AF583E8F07C
:100AC000225006E92582C8F622BBFE05E92582C828
:020AD000F22210
:100AD200EB9FF5F0EA9E42F0E99D42F0E89C45F07A
:010AE20022F1
:100062000203FAE493A3F8E493A34003F68001F2B7
:1000720008DFF48029E493A3F85407240CC8C3339F
:10008200C4540F4420C8834004F456800146F6DF6E
:10009200E4800B0102040810204080900F49E47EA6
:1000A200019360BCA3FF543F30E509541FFEE49363
:1000B200A360010ECF54C025E060A840B8E493A32A
:1000C200FAE493A3F8E493A3C8C582C8CAC583CA55
:1000D200F0A3C8C582C8CAC583CADFE9DEE780BE0D
:010F5A000096
:00000001FF
