:10005600496E697469616C697A617465640A0A003B
:10006600446576696365447363723A307800526515
:10007600636F6E656374696E672E2E2E0A0A0053CF
:100086006574757020436F6D616E640A0044657611
:100096006963650A0A00446576696365205175617E
:1000A6006C69666965720A0A00436F6E66696775F0
:1000B600726174696F6E0A0A004F74686572205324
:1000C6007065656420436F6E6669677572617469F1
:1000D6006F6E0A0A00537472696E670A0A0000019D
:0800E6000202030304040505F6
:1003FF00E4F514F513F512F511C203C200C202C2DF
:10040F00011207057BFF7A007956120E50752301F2
:10041F00752400752B01752C14752101752220751B
:10042F002901752A42752D01752E647BFF7A00799B
:10043F0066120E50AF24AE231210CA7F0A12107824
:10044F00740154E070030205667515007516807E01
:10045F00017F008E178F18C3749C9FFF74019ECF6E
:10046F002402CF3400FEE48F108E0FF50EF50DF53C
:10047F000CF50BF50AF509AF10AE0FAD0EAC0DABC9
:10048F000CAA0BA90AA809C3120B205026E51625A2
:10049F000CF582E515350BF58374CDF0E50C2401D1
:1004AF00F50CE4350BF50BE4350AF50AE43509F5DF
:1004BF000980C4E4F50CF50BF50AF509AF10AE0F82
:1004CF00AD0EAC0DAB0CAA0BA90AA809C3120B20D9
:1004DF005033E518250CF582E517350BF583E0FF52
:1004EF00E516250CF582E515350BF583EFF0E50CD8
:1004FF002401F50CE4350BF50BE4350AF50AE43568
:10050F0009F50980B785152385162474002480FF0B
:10051F00740134FFFEC3E52C9FF52CE52B9EF52BC4
:10052F00C3E5269FF526E5259EF525C3E5289FF50E
:10053F0028E5279EF527C3E5229FF522E5219EF5A5
:10054F0021C3E52A9FF52AE5299EF529C3E52E9FAC
:10055F00F52EE52D9EF52DD2E843D82090E668E0E4
:10056F004409F090E65CE0443DF0D2AF90E680E0C5
:10057F0020E105D204120F2F90E680E054F7F07BB4
:10058F00FF7A007974120E50538EF8C203300105B2
:10059F0012019EC2013003291200415024C20312DE
:1005AF000FCB20001690E682E030E704E020E1EF69
:1005BF0090E682E030E604E020E0E4120F631200E0
:0605CF004E12098D80C7E9
:10019E007BFF7A007985120E5090E6B9E07003026B
:1001AE00028B14700302030824FE700302038B24D7
:1001BE00FB700302028514700302027F14700302A7
:1001CE000273147003020279240560030203EB121A
:1001DE00003640030203F790E6BBE024FE603414C1
:1001EE00605724FD601A14603D240670757BFF7AFB
:1001FE00007993120E50E52390E6B3F0E524805B70
:10020E007BFF7A00799C120E50E52B90E6B3F0E559
:10021E002C80487BFF7A0079AF120E50E52590E6D0
:10022E00B3F0E52680357BFF7A0079BF120E50E5DC
:10023E002790E6B3F0E52880227BFF7A0079DB1267
:10024E000E5090E6BAE0FF120F8FAA06A9077B01A7
:10025E00EA494B600DEE90E6B3F0EF90E6B4F00293
:10026E0003F70203F0120FFF0203F712108B0203C3
:10027E00F71200EE0203F71209E40203F71210D888
:10028E0040030203F790E6B8E0247F60151460196E
:10029E0024027063A200E43325E0FFA202E4334F90
:1002AE008041E490E740F0803F90E6BCE0547EFF52
:1002BE007E00E0D394807C0040047D0180027D00AE
:1002CE00EC4EFEED4F24E4F58274003EF583E4938C
:1002DE00FF3395E0FEEF24A1FFEE34E68F82F58327
:1002EE00E0540190E740F0E4A3F090E68AF090E647
:1002FE008B7402F00203F70203F01210E3400302C4
:10030E0003F790E6B8E024FE6016240260030203B1
:10031E00F790E6BAE0B40105C2000203F70203F05B
:10032E0090E6BAE0705590E6BCE0547EFF7E00E0A9
:10033E00D394807C0040047D0180027D00EC4EFE53
:10034E00ED4F24E4F58274003EF583E493FF33957C
:10035E00E0FEEF24A1FFEE34E68F82F583E054FE3B
:10036E00F090E6BCE05480131313541FFFE0540FBB
:10037E002F90E683F0E04420F0806E80651210EE40
:10038E00506790E6B8E024FE601A2402705B90E697
:10039E00BAE0B40104D200805090E6BAE0B4020292
:1003AE008047803E90E6BCE0547EFF7E00E0D39412
:1003BE00807C0040047D0180027D00EC4EFEED4FFE
:1003CE0024E4F58274003EF583E493FF3395E0FE5A
:1003DE00EF24A1FFEE34E68F82F5838008120050E1
:1003EE00500790E6A0E04401F090E6A0E04480F0D3
:0103FE0022DC
:0300330002002F99
:04002F0053D8EF3281
:1005D50053657269616C20506F727420496E69743D
:1005E50069616C697A656400427269646765204374
:1005F5006F6E666967757265640A0047657474692C
:100605006E672044657363726970746F723A200077
:1006150053657474696E6720436F6E6669670A0A6D
:100625000047657474696E6720436F6E6669670A73
:100635000A0053657474696E6720496E7465726645
:100645006163650A0A0047657474696E6720496EBF
:10065500746572666163650A0A0047657474696E3C
:1006650067205374617475730A0A00436C6572617F
:10067500696E672046656174757265730A0A005371
:10068500657474696E672046656174757265730A71
:100695000A005355444176204953520A0053555494
:1006A5006F6B204953520A005552737420495352B7
:1006B5000A00456E64506F696E74204953520045B7
:1006C50050383A204174656E6469656E646F2049DF
:1006D500535220494E2F4F55540A000A4550383A77
:1006E500204573746F7920766163ED6F0A0045507C
:1006F500383A204573746F79206C6C656E6F0A000B
:10000300500000C0F9A4B0999282F880988883C602
:10001300A1868E012F000230000002340000013758
:0B00230000013800023200000139002B
:10070500908000E0909000E090A000E090B000E0C4
:10071500FF120FDF7BFF7A0579D5120E507F0A1283
:1007250010787F0A12107890E60174CBF000000073
:1007350090E60B7403F000000090E60274BCF00034
:10074500000090E603748FF090E61074A0F00000AE
:100755000090E611F000000090E613E0547FF000F1
:10076500000090E614E0547FF000000090E6157458
:10077500A0F000000090E61274DBF000000090E6A7
:10078500047480F00000007402F00000007404F0AE
:100795000000007406F00000007408F0000000E49A
:1007A500F000000090E61BF000000090E618F00055
:1007B500000090E61B04F000000090E6187405F0B8
:1007C500000000E490E690F0000000F0000000F06A
:1007D50000000090E69174FFF0000000F0000000BA
:1007E500F000000090E65CE04402F0D2EA90E66892
:1007F500E04403F05391BF90E6567403F090E65041
:0C0805007401F07BFF7A0579ED020E50C3
:10098D00E5AA30E70890E6497408F08005E490E6A2
:10099D0049F0E5AB30E00890E6487402F08005E4DC
:1009AD0090E648F090E6AAE030E10690A800E080DD
:1009BD000490A000E090E6AAE030E006909800E0F8
:1009CD008004909000E090E6A7E030E1059088006B
:0609DD00E022908000E022
:0109E30022F1
:02004100D322C8
:02004E00D322BB
:0B0036007BFF7A067900120E50D322E7
:1000EE007BFF7A067915120E5090E6BAE0F536D3FC
:0100FE0022DF
:1009E4007BFF7A067926120E5090E740E536F0E454
:0B09F40090E68AF090E68B04F0D3221E
:10108B007BFF7A067937120E5090E6BAE0F52FD334
:01109B002232
:100FFF007BFF7A06794B120E5090E740E52FF0E415
:0B100F0090E68AF090E68B04F0D322FC
:0B10D8007BFF7A06795F120E50D322D6
:0B10E3007BFF7A067970120E50D322BA
:0B10EE007BFF7A067984120E50D3229B
:02005000D322B9
:100C9F00C0E0C0F0C083C082C0D075D000C000C01B
:100CAF0001C002C003C004C005C006C0077BFF7AA5
:100CBF00067997120E50D2015391EF90E65D7401B1
:100CCF00F0D007D006D005D004D003D002D001D089
:0C0CDF0000D0D0D082D083D0F0D0E03222
:100CEB00C0E0C0F0C083C082C0D075D000C000C0CF
:100CFB0001C002C003C004C005C006C0077BFF7A59
:100D0B000679A2120E505391EF90E65D7404F0D069
:100D1B0007D006D005D004D003D002D001D000D02C
:0A0D2B00D0D082D083D0F0D0E032A7
:0F0BA700C0E0C083C082C0D075D000C004C007BA
:100BB6005391EF90E65D7402F00535E53570020558
:100BC60034E5345532FCE53555334C600790B000BA
:100BD600E0FF800590B800E0FFD5370590A000E063
:080BE600FFD53804909000E0F7
:0D0BEE00D007D004D0D0D082D083D0E03228
:100B3100C0E0C0F0C083C082C0D075D000C000C08A
:0D0B410001C002C003C004C005C006C0070B
:100B4E007BFF7A0679AD120E50852925852A2685DA
:100B5E002682852583A37402F08521278522288588
:100B6E002882852783A37407F05391EF90E65D7476
:0E0B7E0010F0908000E0F50875320475330029
:100B8C00D007D006D005D004D003D002D001D000BD
:0B0B9C00D0D0D082D083D0F0D0E03267
:10104C00C0E0C083C082D2035391EF90E65D740878
:08105C00F0D082D083D0E03215
:100C4E00C0E0C083C08275321075330090E680E03C
:100C5E0030E722852125852226852682852583A3B8
:100C6E007402F0852927852A28852882852783A363
:100C7E007407F0800C852925852A26852127852253
:100C8E00285391EF90E65D7420F0D082D083D0E0AF
:010C9E003223
:01005200327B
:0100FF0032CE
:0109FF0032C5
:0110F90032C4
:0110FA0032C3
:0110FB0032C2
:100BFB00C0E0C0F0C083C082C0D075D000C000C0C0
:100C0B0001C002C003C004C005C006C0077BFF7A49
:100C1B000679B7120E50E5AA20E00DC2AF90E6910F
:100C2B007480F0000000D2AFD007D006D005D004FE
:100C3B00D003D002D001D000D0D0D082D083D0F05E
:030C4B00D0E032C4
:0110FC0032C1
:0110FD0032C0
:100E0F00C0E0C0F0C083C082C0D075D000C000C0A9
:100E1F0001C002C003C004C005C006C0077BFF7A33
:100E2F000679C4120E50D007D006D005D004D003D7
:100E3F00D002D001D000D0D0D082D083D0F0D0E07B
:010E4F003270
:0110FE0032BF
:0110FF0032BE
:0111000032BC
:0111010032BB
:0111020032BA
:0111030032B9
:0111040032B8
:0111050032B7
:0111060032B6
:0111070032B5
:0111080032B4
:0111090032B3
:01110A0032B2
:01110B0032B1
:01110C0032B0
:01110D0032AF
:01110E0032AE
:01110F0032AD
:0111100032AC
:100D3500C0E0C0F0C083C082C0D075D000C000C084
:100D450001C002C003C004C005C006C0075391BF5F
:100D550090E6577402F07BFF7A0679E0120E50D0C8
:100D650007D006D005D004D003D002D001D000D0E2
:0A0D7500D0D082D083D0F0D0E0325D
:0111110032AB
:0111120032AA
:0111130032A9
:100D7F00C0E0C0F0C083C082C0D075D000C000C03A
:100D8F0001C002C003C004C005C006C0075391BF15
:100D9F0090E6577401F07BFF7A0679F3120E50D06C
:100DAF0007D006D005D004D003D002D001D000D098
:0A0DBF00D0D082D083D0F0D0E03213
:0111140032A8
:0111150032A7
:100100001201000200000040B404031000000102CC
:020110000001EC
:0A0114000A0600020000004001008E
:100120000902200001010080320904000002FF00E2
:100130000000070582010014010705080200020003
:1001420009022000010100A0320904000002FF00A0
:10015200000007058201FF030107050802400001B4
:100164000403090410034300790070007200650061
:10017400730073001403430059002D0053007400EE
:100184007200650061006D001003420075006C0090
:0A0194006B002D0049004E00000032
:0F10AD00E4F53F90E678E020E6F9D2E9D2AF22F1
:100E8F00AD0790E678E020E6F9C2E990E678E04415
:100E9F0080F0ED25E090E679F090E678E030E0F92B
:100EAF0090E678E04440F090E678E020E6F990E6AE
:080EBF0078E030E1D6D2E9220F
:100EC700AC0790E678E020E6F9E53F702590E678F4
:100ED700E04480F0EC25E054FE90E679F08D3AAFDF
:100EE70003A907753B018A3C893DE4F53E753F013F
:040EF700D322C3221D
:100EFB00AC0790E678E020E6F9E53F702590E678C0
:100F0B00E04480F0EC25E0440190E679F08D3AAFB7
:100F1B0003A907753B018A3C893DE4F53E753F0308
:040F2B00D322C322E8
:03004B0002081197
:10081100C0E0C083C082C0D075D000C000C001C09C
:1008210002C003C00790E678E030E206753F060299
:1008310008EB90E678E020E10CE53F640260067584
:100841003F070208EBE53F24FE605E14603624FE9C
:1008510070030208DF24FC70030208E82408600327
:100861000208EBAB3BAA3CA93DAF3E053E8F82752A
:100871008300120AD190E679F0E53E653A706B7516
:100881003F05806690E679E0AB3BAA3CA93D853EF9
:1008910082758300120AFE753F02E53A6401704ACF
:1008A10090E678E04420F08041E53A24FEB53E0729
:1008B10090E678E04420F0E53A14B53E0A90E678F7
:1008C100E04440F0753F0090E679E0AB3BAA3CA9DB
:1008D1003D853E82758300120AFE053E800C90E63E
:1008E10078E04440F08000753F005391DFD007D09D
:1008F10003D002D001D000D0D0D082D083D0E0325A
:10101A00120EFBE53F24FA600B146006240770F3F6
:09102A00D3228000E4F53FD3223B
:10103300120EC7E53F24FA600B146006240770F311
:09104300D3228000E4F53FD32222
:03004300020A00AE
:03005300020A009E
:100A0000020C9F00020BA700020CEB0002104C002E
:100A1000020B3100020C4E00020052000200FF00E7
:100A20000209FF000210F9000210FA000210FB0098
:100A3000020BFB000210FC000210FD00020E0F0072
:100A40000210FE000200FF000210FF000211000071
:100A50000211010002110200021103000211040040
:100A6000021105000200FF000200FF000200FF006B
:100A7000021106000211070002110800021109000C
:100A800002110A0002110B0002110C0002110D00EC
:100A900002110E0002110F0002111000020D3500AC
:100AA000021111000211120002111300020D7F0049
:080AB0000211140002111500EF
:100F630090E682E030E004E020E60B90E682E03099
:100F7300E119E030E71590E680E04401F07F147E4C
:0C0F830000120DC990E680E054FEF02240
:100DC9008E198F1A90E600E054187012E51A240162
:100DD900FFE43519C313F519EF13F51A801590E6D9
:100DE90000E05418FFBF100BE51A25E0F51AE519C4
:100DF90033F519E51A151AAE19700215194E600561
:060E0900120FBA80EE2278
:0E10BC00446973636F6E656374696E670A0042
:100F2F0090E680E0300405440AF080034408F07F27
:100F3F00DC7E05120DC97BFF7A1079BC120E509022
:100F4F00E65D74FFF090E65FF05391EF90E680E07E
:040F5F0054F7F02231
:100F8F00AC2DAD2E8D828C83A3E064037019AE0758
:100F9F001FEE7005AF05AE04228D828C83E07A00C0
:0A0FAF002DFDEA3CFC80DDE4FEFFAE
:010FB9002215
:050046000D0A2D3E0033
:100FDF0075C83475CBFF75CAD975985AD29990E6F2
:100FEF0000E054E74410F07BFF7A007946020E5080
:10107800151BA81BA6073099FDC299A81BE6F59970
:03108800051B2223
:10106400AE07EEC3940AEE5004243080022437FF06
:0410740012107822BC
:10109C00AD07EDC4540FFF121064ED540FFF021096
:0110AC0064DF
:0E10CA00AB07AA06AF0212109CAF0302109CE7
:100E5000151B151B151BA81BA60308A60208A60137
:100E6000A81B860308E6FA08E6F9120AB86019A872
:100E70001B8603080806E618860270010614F9129C
:0F0E80000AB8FF12107880D8051B051B051B222E
:100FBA007400F58690FDA57C05A3E582458370F94A
:010FCA002204
:100FCB0090E682E044C0F090E681F0438701000098
:040FDB0000000022F0
:03000000020901F1
:0C090100787FE4F6D8FD75813F020948BC
:100AB800BB010689828A83E0225002E722BBFE023C
:090AC800E32289828A83E493226F
:100AD100BB010CE58229F582E5833AF583E02250DA
:100AE10006E92582F8E622BBFE06E92582F8E22224
:0D0AF100E58229F582E5833AF583E493223E
:100AFE00F8BB010DE58229F582E5833AF583E8F02E
:100B0E00225006E92582C8F622BBFE05E92582C8D9
:020B1E00F222C1
:100B2000EB9FF5F0EA9E42F0E99D42F0E89C45F02B
:010B300022A2
:10090D000203FFE493A3F8E493A34003F68001F2FE
:10091D0008DFF48029E493A3F85407240CC8C333EB
:10092D00C4540F4420C8834004F456800146F6DFBA
:10093D00E4800B0102040810204080900003E47E47
:10094D00019360BCA3FF543F30E509541FFEE493AF
:10095D00A360010ECF54C025E060A840B8E493A376
:10096D00FAE493A3F8E493A3C8C582C8CAC583CAA1
:10097D00F0A3C8C582C8CAC583CADFE9DEE780BE59
:01002E0000D1
:00000001FF
