:1009B800496E697469616C697A617465640A0A00D0
:1009C800446576696365447363723A3078005265AA
:1009D800636F6E656374696E672E2E2E0A0A004770
:1009E8006574205365747570204461746120417684
:1009F80061696C61626C650A0053657475702043A7
:100A08006F6D616E640A004465766963650A0A0061
:100A1800446576696365205175616C6966696572BC
:100A28000A0A00436F6E66696775726174696F6E52
:100A38000A0A004F74686572205370656564204324
:100A48006F6E66696775726174696F6E0A0A005322
:100A58007472696E670A0A00000102020303040443
:020A6800050582
:1003FF00E4F514F513F512F511C203C200C202C2DF
:10040F00011206F07BFF7A0979B8120D707523017E
:10041F00752400752B01752C14752101752220751B
:10042F002901752A42752D01752E647BFF7A097992
:10043F00C8120D70AF24AE2312101B7F0A120FC704
:10044F00740154E070030205667515007516807E01
:10045F00017F008E178F18C3749C9FFF74019ECF6E
:10046F002402CF3400FEE48F108E0FF50EF50DF53C
:10047F000CF50BF50AF509AF10AE0FAD0EAC0DABC9
:10048F000CAA0BA90AA809C3120BDD5026E51625E5
:10049F000CF582E515350BF58374CDF0E50C2401D1
:1004AF00F50CE4350BF50BE4350AF50AE43509F5DF
:1004BF000980C4E4F50CF50BF50AF509AF10AE0F82
:1004CF00AD0EAC0DAB0CAA0BA90AA809C3120BDD1C
:1004DF005033E518250CF582E517350BF583E0FF52
:1004EF00E516250CF582E515350BF583EFF0E50CD8
:1004FF002401F50CE4350BF50BE4350AF50AE43568
:10050F0009F50980B785152385162474002480FF0B
:10051F00740134FFFEC3E52C9FF52CE52B9EF52BC4
:10052F00C3E5269FF526E5259EF525C3E5289FF50E
:10053F0028E5279EF527C3E5229FF522E5219EF5A5
:10054F0021C3E52A9FF52AE5299EF529C3E52E9FAC
:10055F00F52EE52D9EF52DD2E843D82090E668E0E4
:10056F004409F090E65CE0443DF0D2AF90E680E0C5
:10057F0020E105D204120E4F90E680E054F7F07B95
:10058F00FF7A0979D6120D70538EF8C20330010E1F
:10059F007BFF7A0979E7120D7012019EC2013003B9
:1005AF00291200415024C203120F1720001690E6A3
:1005BF0082E030E704E020E1EF90E682E030E604ED
:0F05CF00E020E0E412000312004E120E8380BE03
:10019E007BFF7A0A7901120D7090E6B9E0700302C6
:1001AE00028B14700302030824FE700302038B24D7
:1001BE00FB700302028514700302027F14700302A7
:1001CE000273147003020279240560030203EB121A
:1001DE00003640030203F790E6BBE024FE603414C1
:1001EE00605724FD601A14603D240670757BFF7AFB
:1001FE000A790F120D70E52390E6B3F0E524805BCB
:10020E007BFF7A0A7918120D70E52B90E6B3F0E5B4
:10021E002C80487BFF7A0A792B120D70E52590E62B
:10022E00B3F0E52680357BFF7A0A793B120D70E537
:10023E002790E6B3F0E52880227BFF7A0A795712E1
:10024E000D7090E6BAE0FF120EB6AA06A9077B0162
:10025E00EA494B600DEE90E6B3F0EF90E6B4F00293
:10026E0003F70203F0120F660203F7120FEB0203FD
:10027E00F7120FDA0203F7120F4B0203F7121029CF
:10028E0040030203F790E6B8E0247F60151460196E
:10029E0024027063A200E43325E0FFA202E4334F90
:1002AE008041E490E740F0803F90E6BCE0547EFF52
:1002BE007E00E0D394807C0040047D0180027D00AE
:1002CE00EC4EFEED4F2460F582740A3EF583E49306
:1002DE00FF3395E0FEEF24A1FFEE34E68F82F58327
:1002EE00E0540190E740F0E4A3F090E68AF090E647
:1002FE008B7402F00203F70203F012103440030273
:10030E0003F790E6B8E024FE6016240260030203B1
:10031E00F790E6BAE0B40105C2000203F70203F05B
:10032E0090E6BAE0705590E6BCE0547EFF7E00E0A9
:10033E00D394807C0040047D0180027D00EC4EFE53
:10034E00ED4F2460F582740A3EF583E493FF3395F6
:10035E00E0FEEF24A1FFEE34E68F82F583E054FE3B
:10036E00F090E6BCE05480131313541FFFE0540FBB
:10037E002F90E683F0E04420F0806E806512103FEF
:10038E00506790E6B8E024FE601A2402705B90E697
:10039E00BAE0B40104D200805090E6BAE0B4020292
:1003AE008047803E90E6BCE0547EFF7E00E0D39412
:1003BE00807C0040047D0180027D00EC4EFEED4FFE
:1003CE002460F582740A3EF583E493FF3395E0FED4
:1003DE00EF24A1FFEE34E68F82F5838008120050E1
:1003EE00500790E6A0E04401F090E6A0E04480F0D3
:0103FE0022DC
:0300330002002F99
:04002F0053D8EF3281
:1005DE0053657269616C20506F727420496E697434
:1005EE0069616C697A65640042726964676520436B
:1005FE006F6E666967757265640A00476574746923
:10060E006E672044657363726970746F723A20006E
:10061E0053657474696E6720436F6E6669670A0A64
:10062E000047657474696E6720436F6E6669670A6A
:10063E000A0053657474696E6720496E746572663C
:10064E006163650A0A0047657474696E6720496EB6
:10065E00746572666163650A0A0047657474696E33
:10066E0067205374617475730A0A00436C65726176
:10067E00696E672046656174757265730A0A005368
:10068E00657474696E672046656174757265730A68
:10069E000A005355444176204953520A005355548B
:1006AE006F6B204953520A005552737420495352AE
:1006BE000A00726573657420646F6E650A00536577
:1006CE007474696E67204869676853706565642E37
:1006DE002E2E0A0A00456E64506F696E74204953BF
:0206EE005200B8
:100EE100500000C0F9A4B0999282F880988883C616
:100EF100A1868E012F000235000001380001390062
:040F010002330000B7
:1006F000908000E0909000E090A000E090B000E0DA
:10070000FF120F2B7BFF7A0579DE120D707F0A1224
:100710000FC77F0A120FC790E60174CBF0000000EC
:1007200090E60B7401F000000090E60274BCF0004B
:10073000000090E603748FF090E61074A0F00000C3
:100740000090E611F000000090E613E0547FF00006
:10075000000090E614E0547FF000000090E615746D
:10076000A0F000000090E61274DBF000000090E6BC
:10077000047480F00000007402F00000007404F0C3
:100780000000007406F00000007408F0000000E4AF
:10079000F000000090E61BF000000090E618F0006A
:1007A000000090E61B7431F000000090E618740D14
:1007B000F000000090E69D7480F0000000F0000062
:1007C00000E4FF7C047D0090F00074FFF0A3DDFCEA
:1007D000DCFA7C047D00000000E490E690F000006C
:1007E0000090E691F00000000FBF03D7E490E60B05
:1007F000F090E65CE04402F07BFF7A0579F6020DAA
:010800007087
:100E830090E6AAE030E10690A800E0800490A0007C
:100E9300E090E6AAE030E006909800E080049090AD
:100EA30000E090E6A7E030E105908800E022908022
:020EB30000E05D
:010EB500221A
:02004100D322C8
:02004E00D322BB
:0B0036007BFF7A067909120D70D322BF
:100FDA007BFF7A06791E120D7090E6BAE0F537D3D8
:010FEA0022E4
:100F4B007BFF7A06792F120D7090E740E537F0E4BE
:0B0F5B0090E68AF090E68B04F0D322B1
:100FEB007BFF7A067940120D7090E6BAE0F52FD3AD
:010FFB0022D3
:100F66007BFF7A067954120D7090E740E52FF0E486
:0B0F760090E68AF090E68B04F0D32296
:0B1029007BFF7A067968120D70D3225D
:0B1034007BFF7A067979120D70D32241
:0B103F007BFF7A06798D120D70D32222
:02005000D322B9
:100C9400C0E0C0F0C083C082C0D075D000C000C026
:100CA40001C002C003C004C005C006C0077BFF7AB0
:100CB4000679A0120D70D2015391EF90E65D740194
:100CC400F0D007D006D005D004D003D002D001D094
:0C0CD40000D0D0D082D083D0F0D0E0322D
:100CE000C0E0C0F0C083C082C0D075D000C000C0DA
:100CF00001C002C003C004C005C006C0077BFF7A64
:100D00000679AB120D705391EF90E65D7404F0D04C
:100D100007D006D005D004D003D002D001D000D037
:0A0D2000D0D082D083D0F0D0E032B2
:0F0BEE00C0E0C083C082C0D075D000C004C00773
:100BFD005391EF90E65D7402F00536E5367002050F
:100C0D0035E5355533FCE53655344C600790B0006D
:100C1D00E0FF800590B800E0FFD5380590A000E01A
:080C2D00FFD53904909000E0AE
:0D0C3500D007D004D0D0D082D083D0E032E0
:100AF600C0E0C0F0C083C082C0D075D000C000C0C6
:0D0B060001C002C003C004C005C006C00746
:100B13007BFF7A0679B6120D70852925852A2685ED
:100B23002682852583A37402F085212785222885C3
:100B33002882852783A37407F05391EF90E65D74B1
:100B430010F0908000E0F5087533047534007BFFE6
:070B53007A0679C0120D7053
:100B5A00D007D006D005D004D003D002D001D000EF
:0B0B6A00D0D0D082D083D0F0D0E03299
:1000E800C0E0C083C082D2035391EF90E65D7408EC
:0800F800F0D082D083D0E03289
:10005600C0E0C0F0C083C082C0D075D000C000C070
:1000660001C002C003C004C005C006C0077BFF7AFA
:100076000679CC120D7075331075340090E680E069
:1000860030E72F852125852226852682852583A38F
:100096007402F0852927852A28852882852783A347
:1000A6007407F090E6407483F0C2AF000000D2AF50
:1000B600800C852925852A26852127852228539186
:1000C600EF90E65D7420F0D007D006D005D004D0BE
:1000D60003D002D001D000D0D0D082D083D0F0D0CF
:0200E600E03206
:01005200327B
:01104A003273
:01104B003272
:01104C003271
:01104D003270
:01104E00326F
:100C4200C0E0C0F0C083C082C0D075D000C000C078
:100C520001C002C003C004C005C006C0077BFF7A02
:100C62000679E3120D70E5AA20E00CC2AF90E6917E
:100C7200E4F0000000D2AFD007D006D005D004D0F7
:100C820003D002D001D000D0D0D082D083D0F0D017
:020C9200E0324E
:01104F00326E
:01105000326D
:01105100326C
:01105200326B
:01105300326A
:011054003269
:011055003268
:011056003267
:011057003266
:011058003265
:011059003264
:01105A003263
:01105B003262
:01105C003261
:01105D003260
:01105E00325F
:01105F00325E
:01106000325D
:01106100325C
:01106200325B
:01106300325A
:011064003259
:011065003258
:011066003257
:011067003256
:011068003255
:011069003254
:01106A003253
:01106B003252
:100100001201000200000040B404031000000102CC
:020110000001EC
:0A0114000A0600020000004001008E
:100120000902200001010080320904000002FF00E2
:100130000000070582010014010705080200020003
:1001420009022000010100A0320904000002FF00A0
:10015200000007058201FF030107050802400001B4
:100164000403090410034300790070007200650061
:10017400730073001403430059002D0053007400EE
:100184007200650061006D001003420075006C0090
:0A0194006B002D0049004E00000032
:0F08F100E4F53F90E678E020E6F9D2E9D2AF22B5
:100DAF00AD0790E678E020E6F9C2E990E678E044F6
:100DBF0080F0ED25E090E679F090E678E030E0F90C
:100DCF0090E678E04440F090E678E020E6F990E68F
:080DDF0078E030E1D6D2E922F0
:100DE700AC0790E678E020E6F9E53F702590E678D5
:100DF700E04480F0EC25E054FE90E679F08D3AAFC0
:100E070003A907753B018A3C893DE4F53E753F011F
:040E1700D322C322FD
:100E1B00AC0790E678E020E6F9E53F702590E678A0
:100E2B00E04480F0EC25E0440190E679F08D3AAF98
:100E3B0003A907753B018A3C893DE4F53E753F03E9
:040E4B00D322C322C9
:03004B00020801A7
:10080100C0E0C083C082C0D075D000C000C001C0AC
:1008110002C003C00790E678E030E206753F0602A9
:1008210008DB90E678E020E10CE53F6402600675A4
:100831003F070208DBE53F24FE605E14603624FEBC
:1008410070030208CF24FC70030208D82408600357
:100851000208DBAB3BAA3CA93DAF3E053E8F82754A
:100861008300120B8E90E679F0E53E653A706B7568
:100871003F05806690E679E0AB3BAA3CA93D853E09
:1008810082758300120BBB753F02E53A6401704A21
:1008910090E678E04420F08041E53A24FEB53E0739
:1008A10090E678E04420F0E53A14B53E0A90E67807
:1008B100E04440F0753F0090E679E0AB3BAA3CA9EB
:1008C1003D853E82758300120BBB053E800C90E690
:1008D10078E04440F08000753F005391DFD007D0AD
:1008E10003D002D001D000D0D0D082D083D0E0326A
:100F8100120E1BE53F24FA600B146006240770F370
:090F9100D3228000E4F53FD322D5
:100F9A00120DE7E53F24FA600B146006240770F38C
:090FAA00D3228000E4F53FD322BC
:03004300020900AF
:030053000209009F
:10090000020C9400020BEE00020CE0000200E80072
:10091000020AF600020056000200520002104A00CD
:1009200002104B0002104C0002104D0002104E004D
:10093000020C420002104F00021050000210510041
:100940000210520002104A0002105300021054001C
:1009500002105500021056000210570002105800F5
:100960000210590002104A0002104A0002104A0008
:1009700002105A0002105B0002105C0002105D00C1
:1009800002105E0002105F000210600002106100A1
:100990000210620002106300021064000210650081
:1009A0000210660002106700021068000210690061
:0809B00002106A0002106B0046
:1000030090E682E030E004E020E60B90E682E03008
:10001300E119E030E71590E680E04401F07F147EBB
:0C00230000120D2A90E680E054FEF0224E
:100D2A008E198F1A90E600E054187012E51A240101
:100D3A00FFE43519C313F519EF13F51A801590E678
:100D4A0000E05418FFBF100BE51A25E0F51AE51963
:100D5A0033F519E51A151AAE19700215194E600500
:060D6A00120F0680EE22CC
:0E100D00446973636F6E656374696E670A00F1
:100E4F0090E680E0300405440AF080034408F07F08
:100E5F00DC7E05120D2A7BFF7A10790D120D709032
:100E6F00E65D74FFF090E65FF05391EF90E680E05F
:040E7F0054F7F02212
:100EB600AC2DAD2E8D828C83A3E064037019AE0732
:100EC6001FEE7005AF05AE04228D828C83E07A009A
:0A0ED6002DFDEA3CFC80DDE4FEFF88
:010EE00022EF
:050046000D0A2D3E0033
:100F2B0075C83475CBFF75CAD975985AD29990E6A6
:100F3B0000E054E74410F07BFF7A007946020D7015
:100FC700151BA81BA6073099FDC299A81BE6F59922
:030FD700051B22D5
:100FB300AE07EEC3940AEE5004243080022437FFB8
:040FC300120FC72220
:100FFC00AD07EDC4540FFF120FB3ED540FFF020FEA
:01100C00B330
:0E101B00AB07AA06AF02120FFCAF03020FFCD8
:100D7000151B151B151BA81BA60308A60208A60118
:100D8000A81B860308E6FA08E6F9120B756019A895
:100D90001B8603080806E618860270010614F9127D
:0F0DA0000B75FF120FC780D8051B051B051B2203
:100F06007400F58690FDA57C05A3E582458370F9FE
:010F160022B8
:100F170090E682E044C0F090E681F043870100004C
:040F270000000022A4
:03000000020A6A87
:0C0A6A00787FE4F6D8FD75813F020AB1E8
:100B7500BB010689828A83E0225002E722BBFE027E
:090B8500E32289828A83E49322B1
:100B8E00BB010CE58229F582E5833AF583E022501C
:100B9E0006E92582F8E622BBFE06E92582F8E22266
:0D0BAE00E58229F582E5833AF583E4932280
:100BBB00F8BB010DE58229F582E5833AF583E8F070
:100BCB00225006E92582C8F622BBFE05E92582C81C
:020BDB00F22204
:100BDD00EB9FF5F0EA9E42F0E99D42F0E89C45F06E
:010BED0022E5
:100A76000203FFE493A3F8E493A34003F68001F294
:100A860008DFF48029E493A3F85407240CC8C33381
:100A9600C4540F4420C8834004F456800146F6DF50
:100AA600E4800B0102040810204080900EE1E47EF1
:100AB600019360BCA3FF543F30E509541FFEE49345
:100AC600A360010ECF54C025E060A840B8E493A30C
:100AD600FAE493A3F8E493A3C8C582C8CAC583CA37
:100AE600F0A3C8C582C8CAC583CADFE9DEE780BEEF
:010F050000EB
:00000001FF
