:1009B800496E697469616C697A617465640A0A00D0
:1009C800446576696365447363723A3078005265AA
:1009D800636F6E656374696E672E2E2E0A0A004770
:1009E8006574205365747570204461746120417684
:1009F80061696C61626C650A0053657475702043A7
:100A08006F6D616E640A004465766963650A0A0061
:100A1800446576696365205175616C6966696572BC
:100A28000A0A00436F6E66696775726174696F6E52
:100A38000A0A004F74686572205370656564204324
:100A48006F6E66696775726174696F6E0A0A005322
:100A58007472696E670A0A00000102020303040443
:020A6800050582
:1003FF00E4F514F513F512F511C203C200C202C2DF
:10040F00011207FE7BFF7A0979B8120E12752301CC
:10041F00752400752B01752C14752101752220751B
:10042F002901752A42752D01752E647BFF7A097992
:10043F00C8120E12AF24AE231210C47F0A1210611D
:10044F00740154E070030205667515007516807E01
:10045F00017F008E178F18C3749C9FFF74019ECF6E
:10046F002402CF3400FEE48F108E0FF50EF50DF53C
:10047F000CF50BF50AF509AF10AE0FAD0EAC0DABC9
:10048F000CAA0BA90AA809C3120AD25026E51625F1
:10049F000CF582E515350BF58374CDF0E50C2401D1
:1004AF00F50CE4350BF50BE4350AF50AE43509F5DF
:1004BF000980C4E4F50CF50BF50AF509AF10AE0F82
:1004CF00AD0EAC0DAB0CAA0BA90AA809C3120AD228
:1004DF005033E518250CF582E517350BF583E0FF52
:1004EF00E516250CF582E515350BF583EFF0E50CD8
:1004FF002401F50CE4350BF50BE4350AF50AE43568
:10050F0009F50980B785152385162474002480FF0B
:10051F00740134FFFEC3E52C9FF52CE52B9EF52BC4
:10052F00C3E5269FF526E5259EF525C3E5289FF50E
:10053F0028E5279EF527C3E5229FF522E5219EF5A5
:10054F0021C3E52A9FF52AE5299EF529C3E52E9FAC
:10055F00F52EE52D9EF52DD2E843D82090E668E0E4
:10056F004409F090E65CE0443DF0D2AF90E680E0C5
:10057F0020E105D204120F2C90E680E054F7F07BB7
:10058F00FF7A0979D6120E12538EF8C20330010E7C
:10059F007BFF7A0979E7120E1212019EC201300316
:1005AF00291200415024C203120FC820001690E6F2
:1005BF0082E030E704E020E1EF90E682E030E604ED
:0F05CF00E020E0E4120F6012004E120E5180BEC9
:10019E007BFF7A0A7901120E1290E6B9E070030223
:1001AE00028B14700302030824FE700302038B24D7
:1001BE00FB700302028514700302027F14700302A7
:1001CE000273147003020279240560030203EB121A
:1001DE00003640030203F790E6BBE024FE603414C1
:1001EE00605724FD601A14603D240670757BFF7AFB
:1001FE000A790F120E12E52390E6B3F0E524805B28
:10020E007BFF7A0A7918120E12E52B90E6B3F0E511
:10021E002C80487BFF7A0A792B120E12E52590E688
:10022E00B3F0E52680357BFF7A0A793B120E12E594
:10023E002790E6B3F0E52880227BFF7A0A795712E1
:10024E000E1290E6BAE0FF120F8CAA06A9077B01E8
:10025E00EA494B600DEE90E6B3F0EF90E6B4F00293
:10026E0003F70203F0120FFC0203F71210850203CC
:10027E00F71210740203F71200E20203F71210D203
:10028E0040030203F790E6B8E0247F60151460196E
:10029E0024027063A200E43325E0FFA202E4334F90
:1002AE008041E490E740F0803F90E6BCE0547EFF52
:1002BE007E00E0D394807C0040047D0180027D00AE
:1002CE00EC4EFEED4F2460F582740A3EF583E49306
:1002DE00FF3395E0FEEF24A1FFEE34E68F82F58327
:1002EE00E0540190E740F0E4A3F090E68AF090E647
:1002FE008B7402F00203F70203F01210DD400302CA
:10030E0003F790E6B8E024FE6016240260030203B1
:10031E00F790E6BAE0B40105C2000203F70203F05B
:10032E0090E6BAE0705590E6BCE0547EFF7E00E0A9
:10033E00D394807C0040047D0180027D00EC4EFE53
:10034E00ED4F2460F582740A3EF583E493FF3395F6
:10035E00E0FEEF24A1FFEE34E68F82F583E054FE3B
:10036E00F090E6BCE05480131313541FFFE0540FBB
:10037E002F90E683F0E04420F0806E80651210E846
:10038E00506790E6B8E024FE601A2402705B90E697
:10039E00BAE0B40104D200805090E6BAE0B4020292
:1003AE008047803E90E6BCE0547EFF7E00E0D39412
:1003BE00807C0040047D0180027D00EC4EFEED4FFE
:1003CE002460F582740A3EF583E493FF3395E0FED4
:1003DE00EF24A1FFEE34E68F82F5838008120050E1
:1003EE00500790E6A0E04401F090E6A0E04480F0D3
:0103FE0022DC
:0300330002002F99
:04002F0053D8EF3281
:1005DE0053657269616C20506F727420496E697434
:1005EE0069616C697A65640042726964676520436B
:1005FE006F6E666967757265640A00476574746923
:10060E006E672044657363726970746F723A20006E
:10061E0053657474696E6720436F6E6669670A0A64
:10062E000047657474696E6720436F6E6669670A6A
:10063E000A0053657474696E6720496E746572663C
:10064E006163650A0A0047657474696E6720496EB6
:10065E00746572666163650A0A0047657474696E33
:10066E0067205374617475730A0A00436C65726176
:10067E00696E672046656174757265730A0A005368
:10068E00657474696E672046656174757265730A68
:10069E000A005355444176204953520A005355548B
:1006AE006F6B204953520A005552737420495352AE
:1006BE000A00456E64506F696E74204953520045AE
:1006CE0050383A204174656E6469656E646F2049D6
:1006DE00535220494E2F4F55540A000A4550383A6E
:1006EE00204573746F7920766163ED6F0A00455073
:1006FE00383A204573746F79206C6C656E6F0A0002
:10000300500000C0F9A4B0999282F880988883C602
:10001300A1868E012F000230000002340000013758
:0B00230000013800023200000139002B
:1007FE00908000E0909000E090A000E090B000E0CB
:10080E00FF120FDC7BFF7A0579DE120E127F0A12C1
:10081E0010617F0A12106190E60174CBF0000000A7
:10082E0090E60B7401F000000090E60274BCF0003C
:10083E00000090E603748FF090E61074A0F00000B4
:10084E000090E611F000000090E613E0547FF000F7
:10085E00000090E614E0547FF000000090E615745E
:10086E00A0F000000090E61274D2F000000090E6B6
:10087E00047480F00000007402F00000007404F0B4
:10088E000000007406F00000007408F0000000E4A0
:10089E00F000000090E61BF000000090E618F0005B
:1008AE00000090E61B7411F000000090E618740D25
:1008BE00F0000000E490E60BF090E65CE04402F0FD
:1008CE00D2EA90E668E04403F05391BF90E6567486
:0B08DE0003F07BFF7A0579F6020E1292
:100E51000531E5317002053090E6AAE030E10690F7
:100E6100A800E0800490A000E090E6AAE030E0064F
:100E7100909800E08004909000E090E6A7E030E1D7
:0A0E810005908800E022908000E058
:010E8B002244
:02004100D322C8
:02004E00D322BB
:0B0036007BFF7A067909120E12D3221C
:101074007BFF7A06791E120E1290E6BAE0F536D39B
:011084002249
:1000E2007BFF7A06792F120E1290E740E536F0E494
:0B00F20090E68AF090E68B04F0D32229
:101085007BFF7A067940120E1290E6BAE0F52FD36F
:011095002238
:100FFC007BFF7A067954120E1290E740E52FF0E44D
:0B100C0090E68AF090E68B04F0D322FF
:0B10D2007BFF7A067968120E12D32211
:0B10DD007BFF7A067979120E12D322F5
:0B10E8007BFF7A06798D120E12D322D6
:02005000D322B9
:100CAB00C0E0C0F0C083C082C0D075D000C000C00F
:100CBB0001C002C003C004C005C006C0077BFF7A99
:100CCB000679A0120E12D2015391EF90E65D7401DA
:100CDB00F0D007D006D005D004D003D002D001D07D
:0C0CEB0000D0D0D082D083D0F0D0E03216
:100CF700C0E0C0F0C083C082C0D075D000C000C0C3
:100D070001C002C003C004C005C006C0077BFF7A4C
:100D17000679AB120E125391EF90E65D7404F0D092
:100D270007D006D005D004D003D002D001D000D020
:0A0D3700D0D082D083D0F0D0E0329B
:0F0BB300C0E0C083C082C0D075D000C004C007AE
:100BC2005391EF90E65D7402F00535E5357002054C
:100BD20034E5345532FCE53555334C600790B000AE
:100BE200E0FF800590B800E0FFD5370590A000E057
:080BF200FFD53804909000E0EB
:0D0BFA00D007D004D0D0D082D083D0E0321C
:100AE300C0E0C0F0C083C082C0D075D000C000C0D9
:0D0AF30001C002C003C004C005C006C0075A
:100B00007BFF7A0679B6120E12852925852A26855D
:100B10002682852583A37402F085212785222885D6
:100B20002882852783A37407F05391EF90E65D74C4
:0E0B300010F0908000E0F50875320475330077
:100B3E00D007D006D005D004D003D002D001D0000B
:0B0B4E00D0D0D082D083D0F0D0E032B5
:10104900C0E0C083C082D2035391EF90E65D74087B
:08105900F0D082D083D0E03218
:100C5A00C0E0C083C08275321075330090E680E030
:100C6A0030E722852125852226852682852583A3AC
:100C7A007402F0852927852A28852882852783A357
:100C8A007407F0800C852925852A26852127852247
:100C9A00285391EF90E65D7420F0D082D083D0E0A3
:010CAA003217
:01005200327B
:0100FD0032D0
:0100FE0032CF
:0100FF0032CE
:0108FD0032C8
:0108FE0032C7
:100C0700C0E0C0F0C083C082C0D075D000C000C0B3
:100C170001C002C003C004C005C006C0077BFF7A3D
:100C27000679C0120E12E5AA20E00DC2AF90E69138
:100C37007480F0000000D2AFD007D006D005D004F2
:100C4700D003D002D001D000D0D0D082D083D0F052
:030C5700D0E032B8
:0108FF0032C6
:0110F30032CA
:100DD100C0E0C0F0C083C082C0D075D000C000C0E8
:100DE10001C002C003C004C005C006C0077BFF7A72
:100DF1000679CD120E12D007D006D005D004D0034B
:100E0100D002D001D000D0D0D082D083D0F0D0E0B9
:010E110032AE
:0110F40032C9
:0110F50032C8
:0110F60032C7
:0110F70032C6
:0110F80032C5
:0110F90032C4
:0110FA0032C3
:0110FB0032C2
:0110FC0032C1
:0110FD0032C0
:0110FE0032BF
:0110FF0032BE
:0111000032BC
:0111010032BB
:0111020032BA
:0111030032B9
:0111040032B8
:0111050032B7
:0111060032B6
:100B5900C0E0C0F0C083C082C0D075D000C000C062
:100B690001C002C003C004C005C006C0075391BF3D
:100B790090E6577402F090E69CE0FF12109690E61A
:100B89009DE0FF1210967BFF7A0679E9120E12D0CA
:100B990007D006D005D004D003D002D001D000D0B0
:0A0BA900D0D082D083D0F0D0E0322B
:0111070032B5
:0111080032B4
:0111090032B3
:100D4100C0E0C0F0C083C082C0D075D000C000C078
:100D510001C002C003C004C005C006C0075391BF53
:100D610090E6577401F07BFF7A0679FC120E12D0DF
:100D710007D006D005D004D003D002D001D000D0D6
:0A0D8100D0D082D083D0F0D0E03251
:01110A0032B2
:01110B0032B1
:100100001201000200000040B404031000000102CC
:020110000001EC
:0A0114000A0600020000004001008E
:100120000902200001010080320904000002FF00E2
:100130000000070582010002010705080200020015
:1001420009022000010100A0320904000002FF00A0
:10015200000007058201FF030107050802400001B4
:100164000403090410034300790070007200650061
:10017400730073001403430059002D0053007400EE
:100184007200650061006D001003420075006C0090
:0A0194006B002D0049004E00000032
:0F10A700E4F53F90E678E020E6F9D2E9D2AF22F7
:100E8C00AD0790E678E020E6F9C2E990E678E04418
:100E9C0080F0ED25E090E679F090E678E030E0F92E
:100EAC0090E678E04440F090E678E020E6F990E6B1
:080EBC0078E030E1D6D2E92212
:100EC400AC0790E678E020E6F9E53F702590E678F7
:100ED400E04480F0EC25E054FE90E679F08D3AAFE2
:100EE40003A907753B018A3C893DE4F53E753F0142
:040EF400D322C32220
:100EF800AC0790E678E020E6F9E53F702590E678C3
:100F0800E04480F0EC25E0440190E679F08D3AAFBA
:100F180003A907753B018A3C893DE4F53E753F030B
:040F2800D322C322EB
:03004B0002070E9B
:10070E00C0E0C083C082C0D075D000C000C001C0A0
:10071E0002C003C00790E678E030E206753F06029D
:10072E0007E890E678E020E10CE53F64026006758C
:10073E003F070207E8E53F24FE605E14603624FEA4
:10074E0070030207DC24FC70030207E52408600333
:10075E000207E8AB3BAA3CA93DAF3E053E8F827532
:10076E008300120A8390E679F0E53E653A706B7568
:10077E003F05806690E679E0AB3BAA3CA93D853EFD
:10078E0082758300120AB0753F02E53A6401704A21
:10079E0090E678E04420F08041E53A24FEB53E072D
:1007AE0090E678E04420F0E53A14B53E0A90E678FB
:1007BE00E04440F0753F0090E679E0AB3BAA3CA9DF
:1007CE003D853E82758300120AB0053E800C90E690
:1007DE0078E04440F08000753F005391DFD007D0A1
:1007EE0003D002D001D000D0D0D082D083D0E0325E
:10101700120EF8E53F24FA600B146006240770F3FC
:09102700D3228000E4F53FD3223E
:10103000120EC4E53F24FA600B146006240770F317
:09104000D3228000E4F53FD32225
:03004300020900AF
:030053000209009F
:10090000020CAB00020BB300020CF700021049000E
:10091000020AE300020C5A00020052000200FD002D
:100920000200FE000200FF000208FD000208FE00B7
:10093000020C07000208FF000210F300020DD100B4
:100940000210F4000200FD000210F5000210F60093
:100950000210F7000210F8000210F9000210FA006D
:100960000210FB000200FD000200FD000200FD007D
:100970000210FC000210FD000210FE000210FF0039
:100980000211000002110100021102000211030015
:10099000021104000211050002110600020B5900A9
:1009A000021107000211080002110900020D4100A6
:0809B00002110A0002110B0004
:100F600090E682E030E004E020E60B90E682E0309C
:100F7000E119E030E71590E680E04401F07F147E4F
:0C0F800000120D8B90E680E054FEF02281
:100D8B008E198F1A90E600E054187012E51A2401A0
:100D9B00FFE43519C313F519EF13F51A801590E617
:100DAB0000E05418FFBF100BE51A25E0F51AE51902
:100DBB0033F519E51A151AAE19700215194E60059F
:060DCB00120FB780EE22BA
:0E10B600446973636F6E656374696E670A0048
:100F2C0090E680E0300405440AF080034408F07F2A
:100F3C00DC7E05120D8B7BFF7A1079B6120E1290A7
:100F4C00E65D74FFF090E65FF05391EF90E680E081
:040F5C0054F7F02234
:100F8C00AC2DAD2E8D828C83A3E064037019AE075B
:100F9C001FEE7005AF05AE04228D828C83E07A00C3
:0A0FAC002DFDEA3CFC80DDE4FEFFB1
:010FB6002218
:050046000D0A2D3E0033
:100FDC0075C83475CBFF75CAD975985AD29990E6F5
:100FEC0000E054E74410F07BFF7A007946020E12C1
:10106100151BA81BA6073099FDC299A81BE6F59987
:03107100051B223A
:1008E900AE07EEC3940AEE5004243080022437FF89
:0408F9001210612256
:10109600AD07EDC4540FFF1208E9ED540FFF020827
:0110A600E960
:0E10C400AB07AA06AF02121096AF03021096F9
:100E1200151B151B151BA81BA60308A60208A60175
:100E2200A81B860308E6FA08E6F9120A6A6019A8FE
:100E32001B8603080806E618860270010614F912DA
:0F0E42000A6AFF12106180D8051B051B051B22D1
:100FB7007400F58690FDA57C05A3E582458370F94D
:010FC7002207
:100FC80090E682E044C0F090E681F043870100009B
:040FD80000000022F3
:03000000020056A5
:0C005600787FE4F6D8FD75813F02009D24
:100A6A00BB010689828A83E0225002E722BBFE028A
:090A7A00E32289828A83E49322BD
:100A8300BB010CE58229F582E5833AF583E0225028
:100A930006E92582F8E622BBFE06E92582F8E22272
:0D0AA300E58229F582E5833AF583E493228C
:100AB000F8BB010DE58229F582E5833AF583E8F07C
:100AC000225006E92582C8F622BBFE05E92582C828
:020AD000F22210
:100AD200EB9FF5F0EA9E42F0E99D42F0E89C45F07A
:010AE20022F1
:100062000203FFE493A3F8E493A34003F68001F2B2
:1000720008DFF48029E493A3F85407240CC8C3339F
:10008200C4540F4420C8834004F456800146F6DF6E
:10009200E4800B0102040810204080900003E47EFB
:1000A200019360BCA3FF543F30E509541FFEE49363
:1000B200A360010ECF54C025E060A840B8E493A32A
:1000C200FAE493A3F8E493A3C8C582C8CAC583CA55
:1000D200F0A3C8C582C8CAC583CADFE9DEE780BE0D
:01002E0000D1
:00000001FF
